{
  "address": "0x511930A41fae024714948b700764394CB759B72f",
  "abi": [
    {
      "anonymous": false,
      "inputs": [
        {
          "indexed": true,
          "internalType": "address",
          "name": "previousOwner",
          "type": "address"
        },
        {
          "indexed": true,
          "internalType": "address",
          "name": "newOwner",
          "type": "address"
        }
      ],
      "name": "OwnershipTransferred",
      "type": "event"
    },
    {
      "anonymous": false,
      "inputs": [
        {
          "indexed": false,
          "internalType": "address",
          "name": "recipient",
          "type": "address"
        },
        {
          "indexed": false,
          "internalType": "uint256",
          "name": "profit",
          "type": "uint256"
        }
      ],
      "name": "SentProfit",
      "type": "event"
    },
    {
      "anonymous": false,
      "inputs": [
        {
          "indexed": false,
          "internalType": "address",
          "name": "token",
          "type": "address"
        },
        {
          "indexed": false,
          "internalType": "uint256",
          "name": "amount",
          "type": "uint256"
        }
      ],
      "name": "SwapFinished",
      "type": "event"
    },
    {
      "anonymous": false,
      "inputs": [
        {
          "indexed": true,
          "internalType": "address",
          "name": "sender",
          "type": "address"
        },
        {
          "indexed": false,
          "internalType": "uint256",
          "name": "amount",
          "type": "uint256"
        }
      ],
      "name": "Withdrawal",
      "type": "event"
    },
    {
      "inputs": [
        {
          "internalType": "address",
          "name": "sender",
          "type": "address"
        },
        {
          "internalType": "uint256",
          "name": "baseAmount",
          "type": "uint256"
        },
        {
          "internalType": "uint256",
          "name": "quoteAmount",
          "type": "uint256"
        },
        {
          "internalType": "bytes",
          "name": "data",
          "type": "bytes"
        }
      ],
      "name": "DPPFlashLoanCall",
      "outputs": [],
      "stateMutability": "nonpayable",
      "type": "function"
    },
    {
      "inputs": [
        {
          "internalType": "address",
          "name": "sender",
          "type": "address"
        },
        {
          "internalType": "uint256",
          "name": "baseAmount",
          "type": "uint256"
        },
        {
          "internalType": "uint256",
          "name": "quoteAmount",
          "type": "uint256"
        },
        {
          "internalType": "bytes",
          "name": "data",
          "type": "bytes"
        }
      ],
      "name": "DSPFlashLoanCall",
      "outputs": [],
      "stateMutability": "nonpayable",
      "type": "function"
    },
    {
      "inputs": [
        {
          "internalType": "address",
          "name": "sender",
          "type": "address"
        },
        {
          "internalType": "uint256",
          "name": "baseAmount",
          "type": "uint256"
        },
        {
          "internalType": "uint256",
          "name": "quoteAmount",
          "type": "uint256"
        },
        {
          "internalType": "bytes",
          "name": "data",
          "type": "bytes"
        }
      ],
      "name": "DVMFlashLoanCall",
      "outputs": [],
      "stateMutability": "nonpayable",
      "type": "function"
    },
    {
      "inputs": [
        {
          "components": [
            {
              "internalType": "address",
              "name": "flashLoanPool",
              "type": "address"
            },
            {
              "internalType": "uint256",
              "name": "loanAmount",
              "type": "uint256"
            },
            {
              "components": [
                {
                  "components": [
                    {
                      "internalType": "uint8",
                      "name": "protocol",
                      "type": "uint8"
                    },
                    {
                      "internalType": "bytes",
                      "name": "data",
                      "type": "bytes"
                    },
                    {
                      "internalType": "address[]",
                      "name": "path",
                      "type": "address[]"
                    }
                  ],
                  "internalType": "struct IFlashloan.Hop[]",
                  "name": "hops",
                  "type": "tuple[]"
                },
                {
                  "internalType": "uint16",
                  "name": "part",
                  "type": "uint16"
                }
              ],
              "internalType": "struct IFlashloan.Route[]",
              "name": "routes",
              "type": "tuple[]"
            }
          ],
          "internalType": "struct IFlashloan.FlashParams",
          "name": "params",
          "type": "tuple"
        }
      ],
      "name": "dodoFlashLoan",
      "outputs": [],
      "stateMutability": "nonpayable",
      "type": "function"
    },
    {
      "inputs": [],
      "name": "owner",
      "outputs": [
        {
          "internalType": "address",
          "name": "",
          "type": "address"
        }
      ],
      "stateMutability": "view",
      "type": "function"
    },
    {
      "inputs": [],
      "name": "renounceOwnership",
      "outputs": [],
      "stateMutability": "nonpayable",
      "type": "function"
    },
    {
      "inputs": [
        {
          "internalType": "address",
          "name": "newOwner",
          "type": "address"
        }
      ],
      "name": "transferOwnership",
      "outputs": [],
      "stateMutability": "nonpayable",
      "type": "function"
    },
    {
      "inputs": [
        {
          "internalType": "contract IERC20",
          "name": "token",
          "type": "address"
        },
        {
          "internalType": "address",
          "name": "_to",
          "type": "address"
        },
        {
          "internalType": "uint256",
          "name": "_value",
          "type": "uint256"
        }
      ],
      "name": "withdrawToken",
      "outputs": [],
      "stateMutability": "nonpayable",
      "type": "function"
    }
  ],
  "transactionHash": "0xdc853925cfca32ef1bd91fa0ed177b02c5b22a9c97319fb8ab9159857d2f73ce",
  "args": [],
  "numDeployments": 1,
  "solcInputHash": "15353544c415a04236909e59ccb7c4b5",
  "bytecode": "0x608060405234801561001057600080fd5b5061001a33610023565b60018055610073565b600080546001600160a01b038381166001600160a01b0319831681178455604051919092169283917f8be0079c531659141344cd1fd0a4f28419497f9722a3daafe3b4186f6b6457e09190a35050565b612182806100826000396000f3fe608060405234801561001057600080fd5b50600436106100785760003560e01c806301e336671461007d5780630cdabeba14610092578063715018a6146100a55780637ed1f1dd146100ad5780638da5cb5b146100c0578063d5b99797146100ad578063eb2021c3146100ad578063f2fde38b146100e2575b600080fd5b61009061008b366004611641565b6100f5565b005b6100906100a0366004611a28565b610296565b610090610645565b6100906100bb366004611ab1565b61067b565b6000546001600160a01b03166040516100d99190611b46565b60405180910390f35b6100906100f0366004611b5a565b61068f565b6000546001600160a01b031633146101285760405162461bcd60e51b815260040161011f90611b77565b60405180910390fd5b6002600154141561017b5760405162461bcd60e51b815260206004820152601f60248201527f5265656e7472616e637947756172643a207265656e7472616e742063616c6c00604482015260640161011f565b60026001556040516370a0823160e01b815281906001600160a01b038516906370a08231906101ae903090600401611b46565b60206040518083038186803b1580156101c657600080fd5b505afa1580156101da573d6000803e3d6000fd5b505050506040513d601f19601f820116820180604052508101906101fe9190611bac565b101561023f5760405162461bcd60e51b815260206004820152601060248201526f2737ba1032b737bab3b4103a37b5b2b760811b604482015260640161011f565b61024a83838361072a565b816001600160a01b03167f7fcf532c15f0a6db0bd6d0e038bea71d30d808c7d98cb3bf7268a95bf5081b658260405161028591815260200190565b60405180910390a250506001805550565b8060006102c082604001516000815181106102b3576102b3611bc5565b6020026020010151610785565b9050600082600001516001600160a01b0316634a248d2a6040518163ffffffff1660e01b815260040160206040518083038186803b15801561030157600080fd5b505afa158015610315573d6000803e3d6000fd5b505050506040513d601f19601f820116820180604052508101906103399190611bdb565b6001600160a01b0316826001600160a01b0316149050600083600001516001600160a01b031663d4b970466040518163ffffffff1660e01b815260040160206040518083038186803b15801561038e57600080fd5b505afa1580156103a2573d6000803e3d6000fd5b505050506040513d601f19601f820116820180604052508101906103c69190611bdb565b6001600160a01b0316836001600160a01b031614905081806103e55750805b6104315760405162461bcd60e51b815260206004820152601c60248201527f57726f6e6720666c6173686c6f616e20706f6f6c206164647265737300000000604482015260640161011f565b6040805160808101825233815286516001600160a01b031660208083019190915287810151828401528783015160608301529151600092610473929101611c94565b604051602081830303815290604052905060006104a087604001516000815181106102b3576102b3611bc5565b905086600001516001600160a01b031663d0a494e4826001600160a01b031689600001516001600160a01b0316634a248d2a6040518163ffffffff1660e01b815260040160206040518083038186803b1580156104fc57600080fd5b505afa158015610510573d6000803e3d6000fd5b505050506040513d601f19601f820116820180604052508101906105349190611bdb565b6001600160a01b03161461054957600061054f565b88602001515b836001600160a01b03168a600001516001600160a01b0316634a248d2a6040518163ffffffff1660e01b815260040160206040518083038186803b15801561059657600080fd5b505afa1580156105aa573d6000803e3d6000fd5b505050506040513d601f19601f820116820180604052508101906105ce9190611bdb565b6001600160a01b0316146105e65789602001516105e9565b60005b30866040518563ffffffff1660e01b815260040161060a9493929190611db5565b600060405180830381600087803b15801561062457600080fd5b505af1158015610638573d6000803e3d6000fd5b5050505050505050505050565b6000546001600160a01b0316331461066f5760405162461bcd60e51b815260040161011f90611b77565b61067960006107cb565b565b610688858585858561081b565b5050505050565b6000546001600160a01b031633146106b95760405162461bcd60e51b815260040161011f90611b77565b6001600160a01b03811661071e5760405162461bcd60e51b815260206004820152602660248201527f4f776e61626c653a206e6577206f776e657220697320746865207a65726f206160448201526564647265737360d01b606482015260840161011f565b610727816107cb565b50565b6107808363a9059cbb60e01b8484604051602401610749929190611dec565b60408051601f198184030181529190526020810180516001600160e01b03166001600160e01b031990931692909217909152610c7b565b505050565b6000816000015160008151811061079e5761079e611bc5565b6020026020010151604001516000815181106107bc576107bc611bc5565b60200260200101519050919050565b600080546001600160a01b038381166001600160a01b0319831681178455604051919092169283917f8be0079c531659141344cd1fd0a4f28419497f9722a3daafe3b4186f6b6457e09190a35050565b600061082982840184611e05565b9050600061084782606001516000815181106102b3576102b3611bc5565b90508160400151816001600160a01b03166370a08231306040518263ffffffff1660e01b815260040161087a9190611b46565b60206040518083038186803b15801561089257600080fd5b505afa1580156108a6573d6000803e3d6000fd5b505050506040513d601f19601f820116820180604052508101906108ca9190611bac565b10156109185760405162461bcd60e51b815260206004820152601b60248201527f4661696c656420746f20626f72726f77206c6f616e20746f6b656e0000000000604482015260640161011f565b61092a82606001518360400151610d4d565b7ffdc1bd83776f7aa310fcf2b1915ae1c6c16a4cfb48ebcea2bf15febd084c03de81826001600160a01b03166370a08231306040518263ffffffff1660e01b81526004016109789190611b46565b60206040518083038186803b15801561099057600080fd5b505afa1580156109a4573d6000803e3d6000fd5b505050506040513d601f19601f820116820180604052508101906109c89190611bac565b6040516109d6929190611dec565b60405180910390a160408083015190516370a0823160e01b81526001600160a01b038316906370a0823190610a0f903090600401611b46565b60206040518083038186803b158015610a2757600080fd5b505afa158015610a3b573d6000803e3d6000fd5b505050506040513d601f19601f82011682018060405250810190610a5f9190611bac565b1015610aad5760405162461bcd60e51b815260206004820181905260248201527f4e6f7420656e6f75676820616d6f756e7420746f2072657475726e206c6f616e604482015260640161011f565b6020820151604080840151905163a9059cbb60e01b81526001600160a01b0384169263a9059cbb92610ae192600401611dec565b602060405180830381600087803b158015610afb57600080fd5b505af1158015610b0f573d6000803e3d6000fd5b505050506040513d601f19601f82011682018060405250810190610b339190611eb7565b506040516370a0823160e01b81526000906001600160a01b038316906370a0823190610b63903090600401611b46565b60206040518083038186803b158015610b7b57600080fd5b505afa158015610b8f573d6000803e3d6000fd5b505050506040513d601f19601f82011682018060405250810190610bb39190611bac565b835160405163a9059cbb60e01b81529192506001600160a01b0384169163a9059cbb91610be4918590600401611dec565b602060405180830381600087803b158015610bfe57600080fd5b505af1158015610c12573d6000803e3d6000fd5b505050506040513d601f19601f82011682018060405250810190610c369190611eb7565b5082516040517f2b312ac7b7c9b2fc53c9398d48ed2df4c1d192a03cc090b47087b2936ba0a61f91610c69918490611dec565b60405180910390a15050505050505050565b6000610cd0826040518060400160405280602081526020017f5361666545524332303a206c6f772d6c6576656c2063616c6c206661696c6564815250856001600160a01b0316610e4e9092919063ffffffff16565b8051909150156107805780806020019051810190610cee9190611eb7565b6107805760405162461bcd60e51b815260206004820152602a60248201527f5361666545524332303a204552433230206f7065726174696f6e20646964206e6044820152691bdd081cdd58d8d9595960b21b606482015260840161011f565b816000805b8251811015610d9857828181518110610d6d57610d6d611bc5565b60200260200101516020015182610d849190611eef565b915080610d9081611f15565b915050610d52565b508061ffff1661271014610de15760405162461bcd60e51b815260206004820152601060248201526f2937baba32903830b93a1032b93937b960811b604482015260640161011f565b60005b8451811015610688576000610e16868381518110610e0457610e04611bc5565b60200260200101516020015186610e67565b9050610e3b868381518110610e2d57610e2d611bc5565b602002602001015182610e84565b5080610e4681611f15565b915050610de4565b6060610e5d8484600085610ed3565b90505b9392505050565b6000612710610e7a61ffff851684611f30565b610e609190611f4f565b8060005b835151811015610ecd57610eb984600001518281518110610eab57610eab611bc5565b602002602001015183611004565b915080610ec581611f15565b915050610e88565b50505050565b606082471015610f345760405162461bcd60e51b815260206004820152602660248201527f416464726573733a20696e73756666696369656e742062616c616e636520666f6044820152651c8818d85b1b60d21b606482015260840161011f565b6001600160a01b0385163b610f8b5760405162461bcd60e51b815260206004820152601d60248201527f416464726573733a2063616c6c20746f206e6f6e2d636f6e7472616374000000604482015260640161011f565b600080866001600160a01b03168587604051610fa79190611f71565b60006040518083038185875af1925050503d8060008114610fe4576040519150601f19603f3d011682016040523d82523d6000602084013e610fe9565b606091505b5091509150610ff9828286611066565b979650505050505050565b815160009060ff1661102a57611023836020015183856040015161109f565b9050611060565b6008836000015160ff16101561104d576110238360200151838560400151611260565b610e60836020015183856040015161134d565b92915050565b60608315611075575081610e60565b8251156110855782518084602001fd5b8160405162461bcd60e51b815260040161011f9190611f8d565b6000806000858060200190518101906110b89190611fa0565b9150915060008290506110e6856000815181106110d7576110d7611bc5565b6020026020010151828861156e565b806001600160a01b031663414bf3896040518061010001604052808860008151811061111457611114611bc5565b60200260200101516001600160a01b031681526020018860018151811061113d5761113d611bc5565b60200260200101516001600160a01b031681526020018562ffffff168152602001306001600160a01b031681526020014281526020018981526020016000815260200160006001600160a01b03168152506040518263ffffffff1660e01b815260040161120e919081516001600160a01b03908116825260208084015182169083015260408084015162ffffff16908301526060808401518216908301526080808401519083015260a0838101519083015260c0808401519083015260e09283015116918101919091526101000190565b602060405180830381600087803b15801561122857600080fd5b505af115801561123c573d6000803e3d6000fd5b505050506040513d601f19601f82011682018060405250810190610ff99190611bac565b600080848060200190518101906112779190611bdb565b905061129e8360008151811061128f5761128f611bc5565b6020026020010151828661156e565b6040516338ed173960e01b81526001600160a01b038216906338ed1739906112d3908790600190889030904290600401611fe2565b600060405180830381600087803b1580156112ed57600080fd5b505af1158015611301573d6000803e3d6000fd5b505050506040513d6000823e601f3d908101601f19168201604052611329919081019061201e565b60018151811061133b5761133b611bc5565b60200260200101519150509392505050565b6000806000808680602001905181019061136791906120a3565b6040805160018082528183019092529396509194509250600091906020808301908036833701905050905083816000815181106113a6576113a6611bc5565b60200260200101906001600160a01b031690816001600160a01b0316815250506000866000815181106113db576113db611bc5565b60200260200101516001600160a01b0316856001600160a01b0316634a248d2a6040518163ffffffff1660e01b815260040160206040518083038186803b15801561142557600080fd5b505afa158015611439573d6000803e3d6000fd5b505050506040513d601f19601f8201168201806040525081019061145d9190611bdb565b6001600160a01b031614611472576001611475565b60005b60ff16905061149f8760008151811061149057611490611bc5565b6020026020010151858a61156e565b826001600160a01b031663f87dc1b7886000815181106114c1576114c1611bc5565b6020026020010151896001815181106114dc576114dc611bc5565b60200260200101518b600187876000426040518963ffffffff1660e01b815260040161150f9897969594939291906120f0565b602060405180830381600087803b15801561152957600080fd5b505af115801561153d573d6000803e3d6000fd5b505050506040513d601f19601f820116820180604052508101906115619190611bac565b9998505050505050505050565b60405163095ea7b360e01b81526001600160a01b0384169063095ea7b39061159c9085908590600401611dec565b602060405180830381600087803b1580156115b657600080fd5b505af11580156115ca573d6000803e3d6000fd5b505050506040513d601f19601f820116820180604052508101906115ee9190611eb7565b6107805760405162461bcd60e51b815260206004820152600f60248201526e30b8383937bb32903330b4b632b21760891b604482015260640161011f565b6001600160a01b038116811461072757600080fd5b60008060006060848603121561165657600080fd5b83356116618161162c565b925060208401356116718161162c565b929592945050506040919091013590565b634e487b7160e01b600052604160045260246000fd5b604080519081016001600160401b03811182821017156116ba576116ba611682565b60405290565b604051606081016001600160401b03811182821017156116ba576116ba611682565b604051601f8201601f191681016001600160401b038111828210171561170a5761170a611682565b604052919050565b60006001600160401b0382111561172b5761172b611682565b5060051b60200190565b600082601f83011261174657600080fd5b8135602061175b61175683611712565b6116e2565b82815260059290921b8401810191818101908684111561177a57600080fd5b8286015b8481101561179e5780356117918161162c565b835291830191830161177e565b509695505050505050565b803561ffff811681146117bb57600080fd5b919050565b600082601f8301126117d157600080fd5b6117de6117568335611712565b82358082526020808301929160051b8501018510156117fc57600080fd5b602084015b6020853560051b860101811015611a1f576001600160401b038135111561182757600080fd5b601f1960408235870188038201121561183f57600080fd5b611847611698565b6001600160401b036020843589010135111561186257600080fd5b82358701602081013501603f8101891361187b57600080fd5b61188b6117566020830135611712565b602082810135808352908201919060051b83016040018b10156118ad57600080fd5b604083015b6040602085013560051b8501018110156119ef576001600160401b03813511156118db57600080fd5b803584016060818e03603f190112156118f357600080fd5b6118fb6116c0565b604082013560ff81161461190e57600080fd5b604082013581526001600160401b036060830135111561192d57600080fd5b8d605f60608401358401011261194257600080fd5b60406060830135830101356001600160401b0381111561196457611964611682565b61197560208a601f840116016116e2565b8181528f606083606087013587010101111561199057600080fd5b81606080860135860101602083013760006020838301015280602084015250506001600160401b03608083013511156119c857600080fd5b6119db8e60406080850135850101611735565b6040820152845250602092830192016118b2565b50835250611a049050833588016040016117a9565b60208201528085525050602083019250602081019050611801565b50949350505050565b600060208284031215611a3a57600080fd5b81356001600160401b0380821115611a5157600080fd5b9083019060608286031215611a6557600080fd5b611a6d6116c0565b8235611a788161162c565b815260208381013590820152604083013582811115611a9657600080fd5b611aa2878286016117c0565b60408301525095945050505050565b600080600080600060808688031215611ac957600080fd5b8535611ad48161162c565b9450602086013593506040860135925060608601356001600160401b0380821115611afe57600080fd5b818801915088601f830112611b1257600080fd5b813581811115611b2157600080fd5b896020828501011115611b3357600080fd5b9699959850939650602001949392505050565b6001600160a01b0391909116815260200190565b600060208284031215611b6c57600080fd5b8135610e608161162c565b6020808252818101527f4f776e61626c653a2063616c6c6572206973206e6f7420746865206f776e6572604082015260600190565b600060208284031215611bbe57600080fd5b5051919050565b634e487b7160e01b600052603260045260246000fd5b600060208284031215611bed57600080fd5b8151610e608161162c565b60005b83811015611c13578181015183820152602001611bfb565b83811115610ecd5750506000910152565b60008151808452611c3c816020860160208601611bf8565b601f01601f19169290920160200192915050565b600081518084526020808501945080840160005b83811015611c895781516001600160a01b031687529582019590820190600101611c64565b509495945050505050565b602080825282516001600160a01b0390811683830152838201511660408084019190915283015160608084019190915280840151608080850152805160a085018190526000939260c0600583901b870181019385019290870190865b81811015611da75788860360bf190183528451805160408089528151908901819052600581901b89018701918a0190878a019060005b81811015611d8457605f198c8603018352835160ff81511686528d8101518b8f880152611d558c880182611c24565b9050604082015191508681036040880152611d708183611c50565b96505050928c0192918c0191600101611d26565b505050509088015161ffff16968801969096529386019391860191600101611cf0565b509398975050505050505050565b84815283602082015260018060a01b0383166040820152608060608201526000611de26080830184611c24565b9695505050505050565b6001600160a01b03929092168252602082015260400190565b600060208284031215611e1757600080fd5b81356001600160401b0380821115611e2e57600080fd5b9083019060808286031215611e4257600080fd5b604051608081018181108382111715611e5d57611e5d611682565b6040528235611e6b8161162c565b81526020830135611e7b8161162c565b602082015260408381013590820152606083013582811115611e9c57600080fd5b611ea8878286016117c0565b60608301525095945050505050565b600060208284031215611ec957600080fd5b81518015158114610e6057600080fd5b634e487b7160e01b600052601160045260246000fd5b600061ffff808316818516808303821115611f0c57611f0c611ed9565b01949350505050565b6000600019821415611f2957611f29611ed9565b5060010190565b6000816000190483118215151615611f4a57611f4a611ed9565b500290565b600082611f6c57634e487b7160e01b600052601260045260246000fd5b500490565b60008251611f83818460208701611bf8565b9190910192915050565b602081526000610e606020830184611c24565b60008060408385031215611fb357600080fd5b8251611fbe8161162c565b602084015190925062ffffff81168114611fd757600080fd5b809150509250929050565b85815284602082015260a06040820152600061200160a0830186611c50565b6001600160a01b0394909416606083015250608001529392505050565b6000602080838503121561203157600080fd5b82516001600160401b0381111561204757600080fd5b8301601f8101851361205857600080fd5b805161206661175682611712565b81815260059190911b8201830190838101908783111561208557600080fd5b928401925b82841015610ff95783518252928401929084019061208a565b6000806000606084860312156120b857600080fd5b83516120c38161162c565b60208501519093506120d48161162c565b60408501519092506120e58161162c565b809150509250925092565b6001600160a01b0389811682528816602082015260408101879052606081018690526101006080820181905260009061212b83820188611c50565b60a0840196909652505091151560c083015260e0909101529594505050505056fea2646970667358221220468270b636b708f551a0ef072a41352a292b8d8632b036e62fb7a13054b44fe064736f6c63430008090033",
  "devdoc": {
    "kind": "dev",
    "methods": {
      "owner()": {
        "details": "Returns the address of the current owner."
      },
      "renounceOwnership()": {
        "details": "Leaves the contract without owner. It will not be possible to call `onlyOwner` functions anymore. Can only be called by the current owner. NOTE: Renouncing ownership will leave the contract without an owner, thereby removing any functionality that is only available to the owner."
      },
      "transferOwnership(address)": {
        "details": "Transfers ownership of the contract to a new account (`newOwner`). Can only be called by the current owner."
      }
    },
    "version": 1
  },
  "userdoc": {
    "kind": "user",
    "methods": {},
    "version": 1
  },
  "storageLayout": {
    "storage": [
      {
        "astId": 7,
        "contract": "contracts/Flashloan.sol:Flashloan",
        "label": "_owner",
        "offset": 0,
        "slot": "0",
        "type": "t_address"
      },
      {
        "astId": 115,
        "contract": "contracts/Flashloan.sol:Flashloan",
        "label": "_status",
        "offset": 0,
        "slot": "1",
        "type": "t_uint256"
      }
    ],
    "types": {
      "t_address": {
        "encoding": "inplace",
        "label": "address",
        "numberOfBytes": "20"
      },
      "t_uint256": {
        "encoding": "inplace",
        "label": "uint256",
        "numberOfBytes": "32"
      }
    }
  }
}